:100000000C9477010C945E040C948B040C94B8044B
:100010000C94E5040C949F010C949F010C94120520
:100020000C949F010C949F010C94450A0C94CC0AEB
:100030000C949F010C949F010C949F010C949F01C0
:100040000C949F010C949F010C949F010C949F01B0
:100050000C949F010C949F010C949F010C943F05FC
:100060000C949F010C949F010C949F010C949F0190
:100070000C949F010C949F010C949F010C949F0180
:100080000C949F010C949F010C949F010C949F0170
:100090000C949F010C949F010C949F010C949F0160
:1000A0000C949F010C949F010C949F010000000090
:1000B000240027002A002D00300000000000250049
:1000C00028002B002E003100000000002300260035
:1000D00029002C002F000404040404030405020278
:1000E00002020403020202020606060606060404D1
:1000F00002020204040802011040804010204080E7
:10010000408008020401804020100201108010206D
:1001100040400000000200080E0000030401000B34
:1001200000000000000000000000000000000000CF
:10013000070605040100080A0B0C0D090501090258
:10014000A1010901A1008501050919012903150073
:10015000250195037501810295017505810305014E
:100160000930093109381581257F75089503810605
:10017000C0C005010906A1018502050719E029E7AC
:100180001500250175019508810295017508810307
:100190009506750815002565050719002965810074
:1001A000C00904020001030000000921010100014F
:1001B00022650007058403400001000000000000E4
:1001C00000002A2B280000000000000000000000B2
:1001D000000000000000000000002C9EB4A0A1A2BE
:1001E000A434A6A7A5AE362D3738271E1F202122FE
:1001F00023242526B333B62EB7B89F8485868788F7
:10020000898A8B8C8D8E8F909192939495969798E6
:10021000999A9B9C9D2F3130A3AD350405060708A4
:10022000090A0B0C0D0E0F101112131415161718C6
:10023000191A1B1C1DAFB1B0B50004030904220339
:10024000410072006400750069006E006F002000BC
:100250004D006900630072006F0020002000200044
:100260001803410072006400750069006E006F00A1
:1002700020004C004C00430012010002000000402E
:100280004123378000010102000112010002020037
:1002900000404123378000010102000100C180813C
:1002A000C1080B0002020201000904000001020261
:1002B00000000524001001052401010104240206A8
:1002C0000524060001070581031000400904010010
:1002D000020A000000070502024000000705830231
:1002E00040000000B3036B077F095F0CAC031124CF
:1002F0001FBECFEFDAE0DEBFCDBF11E0A0E0B1E07E
:10030000EAE7FAE102C005900D92AA32B107D9F7E7
:1003100011E0AAE2B1E001C01D92A23BB107E1F7F2
:1003200012E0CCEED2E004C02297FE010E942C0D18
:10033000C43ED107C9F70E948F080C94300D0C946D
:1003400000000895FC0183850895DF93CF9300D0CA
:100350000F92CDB7DEB7DE011196FC01339683E034
:1003600001900D928150E1F769817A818B8190E053
:100370000F900F900F90CF91DF910895CF93DF935F
:10038000EC011B8689810E94000720E0892B09F07F
:1003900021E028878E8181508F838F81883058F4A7
:1003A000898528859F8130E002C0220F331F9A95EE
:1003B000E2F7822B89878E818F5F8E838E818B30CF
:1003C000C1F48A85813041F0813018F0823079F4AF
:1003D00009C089858B8302C089858C838A858F5F5C
:1003E0008A8705C089858D831A8681E08B871E8266
:1003F0001986DF91CF9108951F93162F862F61E004
:100400000E944006812F60E00E94CD061F91089552
:100410001F93162F862F60E00E944006812F61E017
:100420000E94CD061F910895FF920F931F93CF93C3
:10043000DF93EC0168810E940802CE0169810E946D
:10044000080282E390E00E94E00588810E94000794
:100450000197D9F385E090E00E94E00588810E9431
:100460000007892BD9F3FF2400E011E088810E9466
:1004700000070197D9F389810E940007019709F4C9
:10048000F12A88810E940007892BD9F30F5F083079
:1004900011F0110FEBCF88810E9400070197D9F36B
:1004A00088810E940007892BD9F388810E94000768
:1004B0000197D9F388810E940007892BD9F3CE01D7
:1004C00068810E94FC018F2DDF91CF911F910F91C8
:1004D000FF900895DF92EF92FF920F931F93CF93B7
:1004E000DF93EC01D62E69810E940802CE0168815B
:1004F0000E9408028CE291E00E94E005CE01688132
:100500000E94FC018CE291E00E94E005CE0169812D
:100510000E94FC018AE090E00E94E005CE01688123
:100520000E94080288810E9400070197D9F3EE24F7
:10053000FF24F3940D2D10E0D0FE05C0CE0169819B
:100540000E94080204C0CE0169810E94FC018881DA
:100550000E940007892BD9F388810E940007019728
:10056000D9F381E0D822FD24E39488E0E81621F055
:1005700015950795D02EDECFFF2029F0CE01698199
:100580000E94080204C0CE0169810E94FC0188819A
:100590000E940007892BD9F388810E9400070197E8
:1005A000D9F3CE0169810E94080282E390E00E94A3
:1005B000E00588810E9400070197D9F388810E9495
:1005C0000007892BD9F389810E940007892BB1F399
:1005D000CE0168810E94FC01DF91CF911F910F91A4
:1005E000FF90EF90DF900895EF92FF920F931F938B
:1005F0008C01F62EE42E62EE0E946A02C8010E946F
:100600001402C80161E80E946A02C8010E94140233
:10061000C8016F2D0E946A02C8010E941402C8011D
:100620006E2D0E946A02C8010E9414021F910F9150
:10063000FF90EF900895462F6AE40E94F402089517
:100640000F931F938C016AEE0E946A02C8010E94F8
:100650001402C80164EF0E946A02C8010E941402D9
:10066000C801F80160810E940802C801F801618197
:100670000E9408021F910F9108950F93CF93DF936B
:10068000EC01688349832A83002331F01E821F8294
:10069000188619861A861B86CE0168810E94080278
:1006A000CE0169810E940802DF91CF910F910895D8
:1006B000CF93DF93EC018A81882391F061E00E945F
:1006C00040068A8161E00E94CD0660ED77E080E01F
:1006D00090E00E9487058A8160E00E94CD061EC0DE
:1006E000CE0168810E94FC0165E070E080E090E04E
:1006F0000E94870560ED77E080E090E00E9487052A
:10070000CE0168810E9408026AE070E080E090E01B
:100710000E948705CE0168810E940802DF91CF9177
:1007200008950F938130910561F46F5F7F4F91F4CD
:100730008AE291E063E042E020E001E00E943D03B4
:1007400009C0892B39F46F5F7F4F21F48AE291E071
:100750000E94A1010F91089580E090E06FEF7FEF7C
:100760000E949103089581E090E06FEF7FEF0E9477
:10077000910308958AE291E00E94BE010895DF93FB
:10078000CF9300D000D000D0CDB7DEB78AE291E0A1
:100790000E94A2018823C1F08AE291E00E94A50193
:1007A0006C837D838E83DE011196FE01349683E097
:1007B00001900D928150E1F74B8141958AE491E0DF
:1007C0006A8120E00E94600826960FB6F894DEBF8A
:1007D0000FBECDBFCF91DF9108950F931F938AE491
:1007E00091E00E944C070AE211E0C8010E94580300
:1007F000C80160EC0E941B03C8010E94200380E036
:100800006AEB73E042E050E00E9409041F910F91EF
:100810000895853008F051C0E82FF0E0EE0FFF1F7B
:10082000E95CFE4F71836083823009F1833030F4DC
:10083000882349F0813009F040C00DC0833021F198
:100840008430D9F52EC0809169008C7F842B8093F1
:100850006900E89A089580916900440F551F440F7C
:10086000551F837F842B80936900E99A08958091B6
:10087000690034E0440F551F3A95E1F78F7C842BD3
:1008800080936900EA9A08958091690026E0440FF8
:10089000551F2A95E1F78F73842B80936900EB9A9B
:1008A000089580916A0094E0440F551F9A95E1F7EE
:1008B0008F7C842B80936A00EE9A08951F920F928A
:1008C0000FB60F9211242F933F934F935F936F9323
:1008D0007F938F939F93AF93BF93EF93FF938091F9
:1008E000370190913801892B29F0E0913701F0917F
:1008F00038010995FF91EF91BF91AF919F918F9131
:100900007F916F915F914F913F912F910F900FBE0B
:100910000F901F9018951F920F920FB60F921124EF
:100920002F933F934F935F936F937F938F939F93F7
:10093000AF93BF93EF93FF938091390190913A0168
:10094000892B29F0E0913901F0913A010995FF9145
:10095000EF91BF91AF919F918F917F916F915F9137
:100960004F913F912F910F900FBE0F901F901895B0
:100970001F920F920FB60F9211242F933F934F9314
:100980005F936F937F938F939F93AF93BF93EF93F7
:10099000FF9380913B0190913C01892B29F0E091DC
:1009A0003B01F0913C010995FF91EF91BF91AF910F
:1009B0009F918F917F916F915F914F913F912F9177
:1009C0000F900FBE0F901F9018951F920F920FB6A9
:1009D0000F9211242F933F934F935F936F937F93C5
:1009E0008F939F93AF93BF93EF93FF9380913D01BC
:1009F00090913E01892B29F0E0913D01F0913E015B
:100A00000995FF91EF91BF91AF919F918F917F9148
:100A10006F915F914F913F912F910F900FBE0F906B
:100A20001F9018951F920F920FB60F9211242F93BB
:100A30003F934F935F936F937F938F939F93AF9366
:100A4000BF93EF93FF9380913F0190914001892BD9
:100A500029F0E0913F01F09140010995FF91EF915C
:100A6000BF91AF919F918F917F916F915F914F91C6
:100A70003F912F910F900FBE0F901F9018951F92CE
:100A80000F920FB60F9211242F933F938F939F9342
:100A9000AF93BF938091450190914601A09147018A
:100AA000B0914801309149010196A11DB11D232F3C
:100AB0002D5F2D3720F02D570196A11DB11D2093DC
:100AC00049018093450190934601A0934701B0935B
:100AD00048018091410190914201A0914301B09160
:100AE00044010196A11DB11D8093410190934201E3
:100AF000A0934301B0934401BF91AF919F918F9117
:100B00003F912F910F900FBE0F901F9018959B0152
:100B1000AC017FB7F8948091410190914201A0917E
:100B20004301B091440166B5A89B05C06F3F19F021
:100B30000196A11DB11D7FBFBA2FA92F982F88271D
:100B4000860F911DA11DB11D62E0880F991FAA1F7C
:100B5000BB1F6A95D1F7BC012DC0FFB7F8948091F7
:100B6000410190914201A0914301B0914401E6B549
:100B7000A89B05C0EF3F19F00196A11DB11DFFBF55
:100B8000BA2FA92F982F88278E0F911DA11DB11D57
:100B9000E2E0880F991FAA1FBB1FEA95D1F7861BB9
:100BA000970B885E9340C8F221503040404050403F
:100BB00068517C4F211531054105510571F60895A5
:100BC000019739F0880F991F880F991F0297019795
:100BD000F1F70895789484B5826084BD84B581600E
:100BE00084BD85B5826085BD85B5816085BDEEE635
:100BF000F0E0808181608083E1E8F0E01082808114
:100C000082608083808181608083E0E8F0E0808181
:100C100081608083E1E9F0E080818260808380816F
:100C200081608083E0E9F0E0808181608083E1EC95
:100C3000F0E0808184608083808182608083808115
:100C400081608083E3ECF0E0808181608083E0EC70
:100C5000F0E0808182608083E2ECF0E0808181605E
:100C60008083EAE7F0E08081846080838081826015
:100C70008083808181608083808180688083089503
:100C8000CF93DF93482F50E0CA018C509F4FFC0157
:100C900034914A525F4FFA018491882369F190E0C0
:100CA000880F991FFC01E455FF4FA591B491FC01F9
:100CB000E654FF4FC591D491662351F42FB7F894B1
:100CC0008C91932F909589238C93888189230BC0D5
:100CD000623061F42FB7F8948C91932F909589230B
:100CE0008C938881832B88832FBF06C09FB7F8948D
:100CF0008C91832B8C939FBFDF91CF910895883087
:100D000071F1893068F4823031F1833020F4813020
:100D100009F042C01DC0833089F08430E9F512C06B
:100D20008B3059F18C3028F48930E9F08A30A1F504
:100D30001EC08C3031F18E3079F529C08091800051
:100D40008F7703C0809180008F7D8093800008950D
:100D500084B58F7702C084B58F7D84BD089580915E
:100D600090008F7707C0809190008F7D03C08091A5
:100D70009000877F8093900008958091C0008F77C6
:100D800003C08091C0008F7D8093C0000895809142
:100D9000C200877F8093C2000895FF920F931F9334
:100DA000F62E482F50E0CA018E5E9E4FFC01249122
:100DB000CA018C509F4FFC0114914A525F4FFA01B7
:100DC00004910023C9F0222319F0822F0E947F068C
:100DD000E02FF0E0EE0FFF1FE654FF4FA591B49116
:100DE0009FB7F894FF2021F48C911095812302C0C5
:100DF0008C91812B8C939FBF1F910F91FF90089531
:100E00000F931F93482F50E0CA018E5E9E4FFC0146
:100E10002491CA018C509F4FFC0104914A525F4FAC
:100E2000FA011491112319F420E030E015C02223B7
:100E300019F0822F0E947F06812F90E0880F991F62
:100E400088539F4FFC01A591B4918C9120E030E034
:100E5000802311F021E030E0C9011F910F91089526
:100E6000FC0191818081813A31F4913089F080E0F8
:100E7000933089F40DC0813269F49B3021F4828172
:100E80008093000105C09A3029F48281809301018A
:100E900081E0089580E008950895EF92FF920F9306
:100EA0001F938C01E62EDC01ED91FC910480F5810D
:100EB000E02D0995F82ED801ED91FC910680F7817F
:100EC000E02DC8016E2D09958F2D90E01F910F9197
:100ED000FF90EF90089510924A0110924E011092E7
:100EE0004D018EE091E090934C0180934B01089569
:100EF000EF92FF920F931F93DF93CF930F92CDB793
:100F0000DEB789838B017A0184E0BE016F5F7F4F7A
:100F100041E050E00E94A00984E4B801A7010E94CA
:100F2000A0090F90CF91DF911F910F91FF90EF904B
:100F3000089582E048E050E00E9478070895FC019F
:100F400016821782108611861286138614823496B2
:100F5000BF010E9499070895DC01683810F06858B5
:100F600029C0E62FF0E067FF13C0E058F04081E0B1
:100F700090E002C0880F991FEA95E2F780951496D9
:100F80002C911497282314962C93149760E012C088
:100F9000E654FE4F6491662319F420E030E01DC052
:100FA00067FF08C014968C9114978D7F14968C93CC
:100FB00014976F77FD0190E0662321F086818617F4
:100FC00009F416829F5F31969630B1F7CD011496E1
:100FD000BD010E94990721E030E0C9010895CF9337
:100FE000DF93DC01683810F0685825C0E62FF0E088
:100FF00067FF12C0E058F04081E090E002C0880F27
:10100000991FEA95E2F714962C911497282B1496C1
:101010002C93149760E00FC0E654FE4F6491662352
:10102000D9F167FF08C014968C91149782601496CA
:101030008C9314976F7716968C9116978617A9F153
:1010400017968C911797861781F118968C9118979F
:10105000861759F119968C911997861731F11A96BE
:101060008C911A97861709F11B968C911B978617FE
:10107000E1F0ED01E0E0F0E09E2F8E81882321F485
:10108000EA0FFB1F668306C09F5F31962196E6300C
:10109000F10591F7963049F481E090E013969C9326
:1010A0008E93129720E030E007C0CD011496BD0169
:1010B0000E94990721E030E0C901DF91CF910895A6
:1010C000DF93CF9300D000D0CDB7DEB7FC01808195
:1010D00089836A834B832C8381E0BE016F5F7F4FDE
:1010E00044E050E00E9478070F900F900F900F900F
:1010F000CF91DF91089580E86CE371E045E650E020
:101100000E9419090895FC0180818F5F808380E827
:1011100061EA71E049E150E00E9419090895CF9316
:10112000DF930E94EA058FE591E00E9480090E940A
:10113000ED03C0E0D0E00E94BF032097E1F30E94DE
:101140000000F9CFCF92DF92EF92FF920F931F939F
:10115000CF93DF937C016B018A01C0E0D0E00FC028
:10116000D6016D916D01D701ED91FC910190F08157
:10117000E02DC7010995C80FD91F01501040011576
:10118000110571F7CE01DF91CF911F910F91FF9063
:10119000EF90DF90CF900895282F809159018823F8
:1011A000C1F057FF1AC015C0289A9093580180913A
:1011B000F1008193E217F307B9F74115510539F0B2
:1011C0008091F200882319F48BE68093E800AFBF8A
:1011D00002C04FEF5FEFCA010895AFB7F8942770D0
:1011E0002093E9008091F200282F30E02417350782
:1011F0000CF4A901FB019B01240F311D94E6DACF09
:10120000DF93CF930F92CDB7DEB7BE016F5F7F4FF5
:1012100041E050E00E94CC08019719F02FEF3FEF1A
:1012200003C08981282F30E0C9010F90CF91DF9151
:101230000895FF920F931F93F82E142F052F4091BE
:101240005C0150915D01212F302FC901DC01FB01B0
:101250006EEF29C0F7FE02C0949101C090812091E9
:101260005A0130915B0124173507ACF48091E800F6
:101270008570E1F38091E80082FF03C02FEF3FEF1C
:1012800017C09093F100C90101968F739070892B5C
:1012900011F46093E8002F5F3F4F30935B01209380
:1012A0005A01119731961097A9F6812F902F9C0122
:1012B000C9011F910F91FF9008959C018091E80052
:1012C00082FFFCCFF901260F311D03C08091F10090
:1012D0008193E217F307D1F7289A84E680935801A7
:1012E0008BEF8093E800CB0108958093E900809113
:1012F000F200882319F08AE38093E80008950895A6
:101300001092590181E08093D70080EA8093D80041
:1013100082E189BD09B400FEFDCF61E070E080E0AC
:1013200090E00E94870580E98093D8008CE080934C
:10133000E2001092E000559A209A5D98289808954E
:101340005F926F927F928F929F92AF92BF92CF9255
:10135000DF92EF92FF920F931F93CF93DF93E82ECC
:10136000842E752E80915901882371F18B01242FD1
:10137000352FC901EC017AEFF72E67E0962E9E20FB
:1013800050E4552E8E2D90E040E2A42EB12CA822E0
:10139000B9223AE3632E20E4C22ED12CC822D922EE
:1013A00058C09FB7F8949092E9008091E80085FDBD
:1013B00002C020E004C08091F200252D281B9FBFB1
:1013C000222361F4FA9419F42FEF3FEF4DC061E04E
:1013D00070E080E090E00E9487053BC0822F90E0A3
:1013E000C817D9070CF42C2FC21BD1094FB7F8949A
:1013F0009092E900A114B10421F406C01092F1000A
:1014000021502223D9F719C0E7FC03C0F801922F1D
:1014100010C0C801322F06C0FC010196E491E09390
:10142000F10031503323C1F706C081918093F10060
:1014300091509923D1F7020F111D8091E80085FF8B
:1014400005C0209729F4C114D10411F06092E8007E
:101450004FBF209709F0A5CF5D9A84E6809357018E
:10146000282D372DC9019C01C901DF91CF911F9112
:101470000F91FF90EF90DF90CF90BF90AF909F9033
:101480008F907F906F905F9008951F920F920FB68C
:101490000F9211242F933F934F935F936F937F93FA
:1014A0008F939F93AF93BF93EF93FF938091E1004E
:1014B0001092E100982F83FF0FC01092E90081E0A5
:1014C0008093EB001092EC0082E38093ED00109289
:1014D000590188E08093F00092FF34C083E080934C
:1014E000E9008091F200882319F08AE38093E800F4
:1014F0008FB7F89492E09093E9009091F2008FBF3B
:10150000992321F084EA91E00E94A20C8091570176
:10151000882351F080915701815080935701809129
:101520005701882309F45D9880915801882351F070
:1015300080915801815080935801809158018823EF
:1015400009F42898FF91EF91BF91AF919F918F91EE
:101550007F916F915F914F913F912F910F900FBEAF
:101560000F901F9018950F931F93DF93CF930F92B7
:10157000CDB7DEB719828E010F5F1F4FC8010E94E1
:10158000C80CC8010E948308898190E00F90CF9118
:10159000DF911F910F9108951F920F920FB60F9236
:1015A0001124EF92FF921F932F933F934F935F93DA
:1015B0006F937F938F939F93AF93BF93EF93FF931B
:1015C000DF93CF93CDB7DEB76197DEBFCDBF10926B
:1015D000E9008091E80083FF0FC1FE0131969E0172
:1015E000275F3F4F03C08091F1008193E217F3071B
:1015F000D1F7289A84E68093580182EF8093E8001F
:10160000998197FF05C08091E80080FFFCCF03C05F
:101610008EEF8093E800292F30E0C901807690702A
:10162000892B09F0C2C08A81882329F41092F10025
:101630001092F100D6C0813009F4D3C0833009F490
:10164000D0C0853049F48091E80080FFFCCF8B81C9
:1016500080688093E300C5C0863009F07CC01C819F
:10166000EF80F8841230C1F51092E90010925B010E
:1016700010925A0110925D0110925C010E94B30A0F
:1016800099E0FE013996DF01292F1D922A95E9F78D
:1016900099871A8791E09E8790E8988B9AEF998BAB
:1016A00020915A0130915B01275F3F4F3C872B8788
:1016B0008D871092E90010925B0110925A01F0920E
:1016C0005D01E0925C0180E0BF0149E050E00E94D2
:1016D00019090E94B30A85C01092E90010925B01BB
:1016E00010925A01F0925D01E0925C01123241F4D5
:1016F00082E290E00E947B08892B09F476C071C0D9
:10170000113079F488E0E816F10419F481E080934F
:101710005E0180915E01882309F06BC0E8E7F2E08A
:1017200013C0133009F061C08B81882319F4EAE3F8
:10173000F2E00AC0823019F4EEE3F2E005C0813035
:1017400009F053C0E0E6F2E0449180E8BF0150E0C8
:101750000E94190946C0873009F447C0883021F437
:1017600081E08093F1003DC08930D9F5237030705D
:10177000232BD9F5EDE9F2E091E031E026E39093F7
:10178000E9003093EB0084918093EC002093ED000E
:101790009F5F3196953099F78EE78093EA0010921B
:1017A000EA008B81809359011CC08F81988510922B
:1017B000E90010925B0110925A0190935D018093B1
:1017C0005C018D81882329F4CE0101960E94D40CFE
:1017D00006C0823051F4CE0101960E943007882362
:1017E00021F08EEF8093E80007C081E28093EB0048
:1017F00003C0EAE8F2E0A8CF6196DEBFCDBFCF918B
:10180000DF91FF91EF91BF91AF919F918F917F9168
:101810006F915F914F913F912F911F91FF90EF90AA
:101820000F900FBE0F901F9018952091A00130913E
:10183000A1018091A2019091A301281B390B2F7364
:101840003070C90108952091A0013091A1018091CB
:10185000A2019091A3012817390719F42FEF3FEF48
:1018600009C0E091A201F091A301E05AFE4F8081EE
:10187000282F30E0C90108952091A0013091A101E5
:101880008091A2019091A3012817390719F42FEF35
:101890003FEF13C0E091A201F091A301E05AFE4F87
:1018A00020818091A2019091A30101968F73907085
:1018B0009093A3018093A20130E0C9010895109292
:1018C000A7011092A60188EE93E0A0E0B0E080931B
:1018D000A8019093A901A093AA01B093AB018CE158
:1018E00091E09093A5018093A40108950F931F9315
:1018F000DF93CF930F92CDB7DEB78C0169838091D0
:101900000901882369F083E0BE016F5F7F4F41E0EA
:1019100050E00E94A0091816190614F49C0107C093
:1019200081E090E0F8019383828320E030E0C901F8
:101930000F90CF91DF911F910F91089583E00E9446
:1019400075090895CF93DF9312C082E00E940009C9
:101950002FEF8F3F9207C9F0E091A001F091A10114
:10196000E05AFE4F8083D093A101C093A001C091A3
:10197000A001D091A1012196CF73D0708091A201D6
:101980009091A301C817D90701F7DF91CF9108956E
:10199000FC0180818E5F808380E861EA72E042E42E
:1019A00050E00E9419090895FC0181819081913ACB
:1019B00059F4813209F04CC080E062E071E047E008
:1019C00050E00E94190942C0913209F041C08032B2
:1019D00039F482E091E067E070E00E945D0936C072
:1019E000823209F035C08281809309018091020121
:1019F00090910301A0910401B0910501805B944096
:101A0000A040B04019F58091090180FD12C087E720
:101A100097E790930108809300082BE088E190E01D
:101A20000FB6F894A895809360000FBE20936000D5
:101A30000DC088E10FB6F8948093600010926000AA
:101A40000FBEA895109201081092000881E0089539
:101A500080E00895EE0FFF1F0590F491E02D0994AA
:101A600012E0CCEED2E004C0FE010E942C0D2296C2
:0A1A7000CE3ED107C9F7F894FFCF6E
:101A7A00010100E1000000000000000000004D0725
:101A8A00A208EF07AC079F0700000000760CA20827
:0A1A9A00150C3C0C230C9E0CA20C52
:00000001FF
